{"abi":[{"type":"constructor","inputs":[],"stateMutability":"nonpayable"},{"type":"function","name":"DEFAULT_ADMIN_ROLE","inputs":[],"outputs":[{"name":"","type":"bytes32","internalType":"bytes32"}],"stateMutability":"view"},{"type":"function","name":"DOCTOR_ROLE","inputs":[],"outputs":[{"name":"","type":"bytes32","internalType":"bytes32"}],"stateMutability":"view"},{"type":"function","name":"OWNER_ROLE","inputs":[],"outputs":[{"name":"","type":"bytes32","internalType":"bytes32"}],"stateMutability":"view"},{"type":"function","name":"PHARMACY_ROLE","inputs":[],"outputs":[{"name":"","type":"bytes32","internalType":"bytes32"}],"stateMutability":"view"},{"type":"function","name":"addDoctor","inputs":[{"name":"_doctor","type":"address","internalType":"address"}],"outputs":[],"stateMutability":"nonpayable"},{"type":"function","name":"addInventory","inputs":[{"name":"_medId","type":"uint256","internalType":"uint256"},{"name":"_quantity","type":"uint256","internalType":"uint256"}],"outputs":[],"stateMutability":"nonpayable"},{"type":"function","name":"addMedicine","inputs":[{"name":"_name","type":"string","internalType":"string"},{"name":"_composition","type":"string","internalType":"string"},{"name":"_mg","type":"uint256","internalType":"uint256"},{"name":"_price","type":"uint256","internalType":"uint256"}],"outputs":[],"stateMutability":"nonpayable"},{"type":"function","name":"addPharmacy","inputs":[{"name":"_pharmacy","type":"address","internalType":"address"}],"outputs":[],"stateMutability":"nonpayable"},{"type":"function","name":"buyMedicine","inputs":[{"name":"_proof","type":"bytes","internalType":"bytes"},{"name":"_publicInputs","type":"bytes32[]","internalType":"bytes32[]"},{"name":"_userAddress","type":"string","internalType":"string"},{"name":"_details","type":"uint256[]","internalType":"uint256[]"}],"outputs":[],"stateMutability":"payable"},{"type":"function","name":"getPrice","inputs":[{"name":"_details","type":"uint256[]","internalType":"uint256[]"}],"outputs":[{"name":"totalPrice","type":"uint256","internalType":"uint256"}],"stateMutability":"view"},{"type":"function","name":"getRoleAdmin","inputs":[{"name":"role","type":"bytes32","internalType":"bytes32"}],"outputs":[{"name":"","type":"bytes32","internalType":"bytes32"}],"stateMutability":"view"},{"type":"function","name":"grantRole","inputs":[{"name":"role","type":"bytes32","internalType":"bytes32"},{"name":"account","type":"address","internalType":"address"}],"outputs":[],"stateMutability":"nonpayable"},{"type":"function","name":"hasRole","inputs":[{"name":"role","type":"bytes32","internalType":"bytes32"},{"name":"account","type":"address","internalType":"address"}],"outputs":[{"name":"","type":"bool","internalType":"bool"}],"stateMutability":"view"},{"type":"function","name":"medCount","inputs":[],"outputs":[{"name":"","type":"uint256","internalType":"uint256"}],"stateMutability":"view"},{"type":"function","name":"medicines","inputs":[{"name":"","type":"uint256","internalType":"uint256"}],"outputs":[{"name":"name","type":"string","internalType":"string"},{"name":"composition","type":"string","internalType":"string"},{"name":"mg","type":"uint256","internalType":"uint256"},{"name":"price","type":"uint256","internalType":"uint256"},{"name":"quantityAvailable","type":"uint256","internalType":"uint256"},{"name":"pharmacy","type":"address","internalType":"address"}],"stateMutability":"view"},{"type":"function","name":"renounceRole","inputs":[{"name":"role","type":"bytes32","internalType":"bytes32"},{"name":"callerConfirmation","type":"address","internalType":"address"}],"outputs":[],"stateMutability":"nonpayable"},{"type":"function","name":"revokeRole","inputs":[{"name":"role","type":"bytes32","internalType":"bytes32"},{"name":"account","type":"address","internalType":"address"}],"outputs":[],"stateMutability":"nonpayable"},{"type":"function","name":"supportsInterface","inputs":[{"name":"interfaceId","type":"bytes4","internalType":"bytes4"}],"outputs":[{"name":"","type":"bool","internalType":"bool"}],"stateMutability":"view"},{"type":"event","name":"MedicineOrder","inputs":[{"name":"_medId","type":"uint256","indexed":false,"internalType":"uint256"},{"name":"_quantity","type":"uint256","indexed":false,"internalType":"uint256"},{"name":"_address","type":"string","indexed":false,"internalType":"string"}],"anonymous":false},{"type":"event","name":"RoleAdminChanged","inputs":[{"name":"role","type":"bytes32","indexed":true,"internalType":"bytes32"},{"name":"previousAdminRole","type":"bytes32","indexed":true,"internalType":"bytes32"},{"name":"newAdminRole","type":"bytes32","indexed":true,"internalType":"bytes32"}],"anonymous":false},{"type":"event","name":"RoleGranted","inputs":[{"name":"role","type":"bytes32","indexed":true,"internalType":"bytes32"},{"name":"account","type":"address","indexed":true,"internalType":"address"},{"name":"sender","type":"address","indexed":true,"internalType":"address"}],"anonymous":false},{"type":"event","name":"RoleRevoked","inputs":[{"name":"role","type":"bytes32","indexed":true,"internalType":"bytes32"},{"name":"account","type":"address","indexed":true,"internalType":"address"},{"name":"sender","type":"address","indexed":true,"internalType":"address"}],"anonymous":false},{"type":"error","name":"AccessControlBadConfirmation","inputs":[]},{"type":"error","name":"AccessControlUnauthorizedAccount","inputs":[{"name":"account","type":"address","internalType":"address"},{"name":"neededRole","type":"bytes32","internalType":"bytes32"}]}],"bytecode":{"object":"0x6080604052600060025534801561001557600080fd5b506100407fb19546dff01e856fb3f010c267a7b1c60363cf8a4664e21cc89c26224620214e3361008f565b5060405161004d9061013b565b604051809103906000f080158015610069573d6000803e3d6000fd5b50600380546001600160a01b0319166001600160a01b0392909216919091179055610149565b6000828152602081815260408083206001600160a01b038516845290915281205460ff16610131576000838152602081815260408083206001600160a01b03861684529091529020805460ff191660011790556100e93390565b6001600160a01b0316826001600160a01b0316847f2f8788117e7eff1d82e926ec794901d17c78024a50270940304540a733656f0d60405160405180910390a4506001610135565b5060005b92915050565b612d6880620014e883390190565b61138f80620001596000396000f3fe6080604052600436106101095760003560e01c8063afd675f811610095578063e58378bb11610064578063e58378bb146102dd578063ede06b9714610311578063f0c58ea714610327578063f0e8fdce14610349578063fec331f21461036957600080fd5b8063afd675f814610258578063c85e766d14610278578063cef9ef29146102aa578063d547741f146102bd57600080fd5b806336568abe116100dc57806336568abe146101c35780634780468f146101e357806363c4e8de1461020357806391d1485414610223578063a217fddf1461024357600080fd5b806301ffc9a71461010e578063248a9ca3146101435780632ba25bdc146101815780632f2ff15d146101a3575b600080fd5b34801561011a57600080fd5b5061012e610129366004610c98565b61039d565b60405190151581526020015b60405180910390f35b34801561014f57600080fd5b5061017361015e366004610cc9565b60009081526020819052604090206001015490565b60405190815260200161013a565b34801561018d57600080fd5b506101a161019c366004610d85565b6103d4565b005b3480156101af57600080fd5b506101a16101be366004610e15565b6104b3565b3480156101cf57600080fd5b506101a16101de366004610e15565b6104de565b3480156101ef57600080fd5b506101a16101fe366004610e41565b610516565b34801561020f57600080fd5b506101a161021e366004610e5c565b61056a565b34801561022f57600080fd5b5061012e61023e366004610e15565b6105ad565b34801561024f57600080fd5b50610173600081565b34801561026457600080fd5b506101a1610273366004610e41565b6105d6565b34801561028457600080fd5b50610298610293366004610cc9565b610618565b60405161013a96959493929190610ec4565b6101a16102b8366004610fa6565b610766565b3480156102c957600080fd5b506101a16102d8366004610e15565b610ab7565b3480156102e957600080fd5b506101737fb19546dff01e856fb3f010c267a7b1c60363cf8a4664e21cc89c26224620214e81565b34801561031d57600080fd5b5061017360025481565b34801561033357600080fd5b5061017360008051602061133a83398151915281565b34801561035557600080fd5b5061017361036436600461106a565b610adc565b34801561037557600080fd5b506101737f0af1dac7dea2fd7f7738119cec7df099dfad49aa9d2e7d17ba6b60f63ae7411f81565b60006001600160e01b03198216637965db0b60e01b14806103ce57506301ffc9a760e01b6001600160e01b03198316145b92915050565b60008051602061133a8339815191526103ec81610b51565b6040805160c0810182528681526020808201879052818301869052606082018590526000608083018190523360a08401526002548152600190915291909120815181906104399082611136565b506020820151600182019061044e9082611136565b506040820151600282810191909155606083015160038301556080830151600483015560a090920151600590910180546001600160a01b0319166001600160a01b0390921691909117905580549060006104a78361120c565b91905055505050505050565b6000828152602081905260409020600101546104ce81610b51565b6104d88383610b5e565b50505050565b6001600160a01b03811633146105075760405163334bd91960e11b815260040160405180910390fd5b6105118282610bf0565b505050565b7fb19546dff01e856fb3f010c267a7b1c60363cf8a4664e21cc89c26224620214e61054081610b51565b6105117f0af1dac7dea2fd7f7738119cec7df099dfad49aa9d2e7d17ba6b60f63ae7411f83610b5e565b60008051602061133a83398151915261058281610b51565b600083815260016020526040812060040180548492906105a3908490611225565b9091555050505050565b6000918252602082815260408084206001600160a01b0393909316845291905290205460ff1690565b7fb19546dff01e856fb3f010c267a7b1c60363cf8a4664e21cc89c26224620214e61060081610b51565b61051160008051602061133a83398151915283610b5e565b600160205260009081526040902080548190610633906110ac565b80601f016020809104026020016040519081016040528092919081815260200182805461065f906110ac565b80156106ac5780601f10610681576101008083540402835291602001916106ac565b820191906000526020600020905b81548152906001019060200180831161068f57829003601f168201915b5050505050908060010180546106c1906110ac565b80601f01602080910402602001604051908101604052809291908181526020018280546106ed906110ac565b801561073a5780601f1061070f5761010080835404028352916020019161073a565b820191906000526020600020905b81548152906001019060200180831161071d57829003601f168201915b50505050600283015460038401546004850154600590950154939491939092506001600160a01b031686565b6107ac7f0af1dac7dea2fd7f7738119cec7df099dfad49aa9d2e7d17ba6b60f63ae7411f8787600081811061079d5761079d611238565b9050602002013560001c6105ad565b6107fd5760405162461bcd60e51b815260206004820152601c60248201527f4e6f7420612077686974656c697374656420646f63746f72202121210000000060448201526064015b60405180910390fd5b600354604051633a94343960e21b81526001600160a01b039091169063ea50d0e490610833908b908b908b908b90600401611277565b602060405180830381865afa158015610850573d6000803e3d6000fd5b505050506040513d601f19601f8201168201806040525081019061087491906112c3565b6108c05760405162461bcd60e51b815260206004820152601860248201527f46616b652050726f6f662055706c6f616465642021212121000000000000000060448201526064016107f4565b6108ca8282610adc565b3410156109115760405162461bcd60e51b81526020600482015260156024820152744c6573732076616c7565207061737365642021212160581b60448201526064016107f4565b60005b81811015610aac578282610929836001611225565b81811061093857610938611238565b90506020020135600160008381526020019081526020016000206004015410610a9a578282610968836001611225565b81811061097757610977611238565b905060200201356001600083815260200190815260200160002060040160008282546109a391906112e5565b90915550506000818152600160208190526040909120600501546001600160a01b0316906108fc90859085906109da908690611225565b8181106109e9576109e9611238565b905060200201356001600085815260200190815260200160002060030154610a1191906112f8565b6040518115909202916000818181858888f19350505050158015610a39573d6000803e3d6000fd5b507f5a521e99d0721dcc0a67a96eedd9f74a5d8271d326d1170a86b97ad692ff4c3f818484610a69836001611225565b818110610a7857610a78611238565b905060200201358787604051610a91949392919061130f565b60405180910390a15b610aa5816002611225565b9050610914565b505050505050505050565b600082815260208190526040902060010154610ad281610b51565b6104d88383610bf0565b6000805b82811015610b4a578383610af5836001611225565b818110610b0457610b04611238565b905060200201356001600083815260200190815260200160002060030154610b2c91906112f8565b610b369083611225565b9150610b43816002611225565b9050610ae0565b5092915050565b610b5b8133610c5b565b50565b6000610b6a83836105ad565b610be8576000838152602081815260408083206001600160a01b03861684529091529020805460ff19166001179055610ba03390565b6001600160a01b0316826001600160a01b0316847f2f8788117e7eff1d82e926ec794901d17c78024a50270940304540a733656f0d60405160405180910390a45060016103ce565b5060006103ce565b6000610bfc83836105ad565b15610be8576000838152602081815260408083206001600160a01b0386168085529252808320805460ff1916905551339286917ff6391f5c32d9c69d2a47ea670b442974b53935d1edc7fd64eb21e047a839171b9190a45060016103ce565b610c6582826105ad565b610c945760405163e2517d3f60e01b81526001600160a01b0382166004820152602481018390526044016107f4565b5050565b600060208284031215610caa57600080fd5b81356001600160e01b031981168114610cc257600080fd5b9392505050565b600060208284031215610cdb57600080fd5b5035919050565b634e487b7160e01b600052604160045260246000fd5b600082601f830112610d0957600080fd5b813567ffffffffffffffff80821115610d2457610d24610ce2565b604051601f8301601f19908116603f01168101908282118183101715610d4c57610d4c610ce2565b81604052838152866020858801011115610d6557600080fd5b836020870160208301376000602085830101528094505050505092915050565b60008060008060808587031215610d9b57600080fd5b843567ffffffffffffffff80821115610db357600080fd5b610dbf88838901610cf8565b95506020870135915080821115610dd557600080fd5b50610de287828801610cf8565b949794965050505060408301359260600135919050565b80356001600160a01b0381168114610e1057600080fd5b919050565b60008060408385031215610e2857600080fd5b82359150610e3860208401610df9565b90509250929050565b600060208284031215610e5357600080fd5b610cc282610df9565b60008060408385031215610e6f57600080fd5b50508035926020909101359150565b6000815180845260005b81811015610ea457602081850181015186830182015201610e88565b506000602082860101526020601f19601f83011685010191505092915050565b60c081526000610ed760c0830189610e7e565b8281036020840152610ee98189610e7e565b60408401979097525050606081019390935260808301919091526001600160a01b031660a09091015292915050565b60008083601f840112610f2a57600080fd5b50813567ffffffffffffffff811115610f4257600080fd5b602083019150836020828501011115610f5a57600080fd5b9250929050565b60008083601f840112610f7357600080fd5b50813567ffffffffffffffff811115610f8b57600080fd5b6020830191508360208260051b8501011115610f5a57600080fd5b6000806000806000806000806080898b031215610fc257600080fd5b883567ffffffffffffffff80821115610fda57600080fd5b610fe68c838d01610f18565b909a50985060208b0135915080821115610fff57600080fd5b61100b8c838d01610f61565b909850965060408b013591508082111561102457600080fd5b6110308c838d01610f18565b909650945060608b013591508082111561104957600080fd5b506110568b828c01610f61565b999c989b5096995094979396929594505050565b6000806020838503121561107d57600080fd5b823567ffffffffffffffff81111561109457600080fd5b6110a085828601610f61565b90969095509350505050565b600181811c908216806110c057607f821691505b6020821081036110e057634e487b7160e01b600052602260045260246000fd5b50919050565b601f821115610511576000816000526020600020601f850160051c8101602086101561110f5750805b601f850160051c820191505b8181101561112e5782815560010161111b565b505050505050565b815167ffffffffffffffff81111561115057611150610ce2565b6111648161115e84546110ac565b846110e6565b602080601f83116001811461119957600084156111815750858301515b600019600386901b1c1916600185901b17855561112e565b600085815260208120601f198616915b828110156111c8578886015182559484019460019091019084016111a9565b50858210156111e65787850151600019600388901b60f8161c191681555b5050505050600190811b01905550565b634e487b7160e01b600052601160045260246000fd5b60006001820161121e5761121e6111f6565b5060010190565b808201808211156103ce576103ce6111f6565b634e487b7160e01b600052603260045260246000fd5b81835281816020850137506000828201602090810191909152601f909101601f19169091010190565b60408152600061128b60408301868861124e565b82810360208401528381526001600160fb1b038411156112aa57600080fd5b8360051b80866020840137016020019695505050505050565b6000602082840312156112d557600080fd5b81518015158114610cc257600080fd5b818103818111156103ce576103ce6111f6565b80820281158282048414176103ce576103ce6111f6565b84815283602082015260606040820152600061132f60608301848661124e565b969550505050505056fe2f3a5455f35aeca177ac653592f277fbe2fbafef01081a2030451bb2fb41c91da2646970667358221220b4c37dcea5b76450965ff88783ee52da8c27dddb14490115ed20c50667f7bc3964736f6c63430008160033608060405234801561001057600080fd5b50612d48806100206000396000f3fe608060405234801561001057600080fd5b50600436106100365760003560e01c8063937f6a101461003b578063ea50d0e41461006e575b600080fd5b6040517ff417b55c6bb98bb4d3375d9870444a6ae4568f8baba22ea526501b6efd371f2981526020015b60405180910390f35b61008161007c366004612c4d565b610091565b6040519015158152602001610065565b620100006103805260036103a0527eeeb2cb5981ed45649abebde081dcff16c8601de4347e7dd1628ba2daac43b76103c0527f30641e0e92bebef818268d663bcad6dbcfd6c0149170f6d7d350b1b1fa6c10016103e0527f116fbefdfd1b2d26224da3196c4a5b6331a4bd596b5a910dc7b14ff9b168d74e610400527f1789ff8d209c9ec932cfc8bafc08e5d77eb1fc861ed007aea9878bf1e04129f9610420527f0c4093fe3aa5f574911c1c1c0bf8c28e3eb319e7b23d091599e0fbc4b069ad98610440527f04b389f961ea24fcab833e027e2d45afff74d0cbcbfe4327b4a54d4e3b8522bb610460527f2b07342474b82c80a2dc4e784d30a8bbc2294daf4b0474184db340d68c1450ad610480527f29cc0a1fd0f4f8bb32ae1c246cd7ff64eb0863941c8d4840ed6d3bc2fc15f9176104a0527f04b532c8a65e722159d03a4ec5ed76a4209135175cdaee4a2283c27789d79d326104c0527f2171b5b9d317a1a59d1b9a0ee9824343cd586674edf90bcafa32ae86883feb156104e0527e60230bbafaf6bc419d420ee8fb4392b47d0330b9903d75837b60cf8565d8cc610500527f0a2818c419b8a158bbf85ca9150b61cf63cda911d61cabe9f1885fdb296c51a2610520527f0b9651b06d7534c7fa0a5c9021fe3281b16cd83e63c533d3e0f23d82dbe56823610540527f0aa2eff06f4a8876643e46850f6948319fda7a80182e271d4fc3cd33cc48fab8610560527f185241a772bd1ef82dc86d82fa95f4429c9a72a6e127da029b7cca2867d404f5610580527f043ed48c06b0cf954e1cb0c8979b7ff676e93bf0684f532e27a47b7341e78b1b6105a0527f20c4a118eac23d20247932ffd511fbaa7c783c0ff86814a550c170d9225cb8aa6105c0527f11b9d598ee44d387ad8097fea4a0646670618aedefe9f401dfe24af7e03b93ab6105e0527f21245d6c0a4d2ff12b21a825f39f30e8f8cf9b259448d111183e975828539576610600527f16a409532c8a1693536e93b6ce9920bfc2e6796e8dfe404675a0cdf6ee77ee7a610620527f1e5f44a3d1a4dd6efd3da5f3f97fe4e9076c229ee6be1da92b20db27931fa4b7610640527f1258faeed83df72a8146d358a265752468e48783fcca79aad6229d927cab98e3610660527f0886fa2ffc5e26c4ec86b6df518eafbe94753c69f1252cae9a1e1fc2fb0b6a0d610680527f2bda4eeee985dbcd74027c9e4b6f7b2d99e70a965c0bc39b0f92c1628a0d60b26106a0527f040b7895b9ed38ae9ab168c7d6ad7f18b496f7d639f8a86d484588feff8eb5ca6106c0527f0b414494ca5108ab230725da62ff9a2b092ef9b79059d1183fcadc9c92eb2e016106e0527f10500cafb4f8a28964f10b792517a57458c5fcd4b14460713e23f51f96c87d51610700527f06889cbbab1a8c289ea929f0a78c763a9f784f46254b82f48a2827c0d44c4759610720527f0d9a41b7d6be64b6fb351451d663342925aae6b09864fdabd35b2bcb12e2b4cb610740527f1f96d18d4d7b1b0575d72f561d5a390f424394546d0d72ee09a8189a0fd2caba610760527f06e6d1480535f6e29a6713cd5c4e668464cbdac425322b2d3b98a34e8834c14f610780527f15c1b7ea4800a867676fc4c79695b5b27b0e702d7d6188d0ad0259936cb3e55f6107a0527f030b16cd4d48e7b40d2ac90b515369aabc0c273bd7c77f122e9993c2251f7f4a6107c0527f07578950db871ef62bab02e94473298e53701113cc0c09573d1ccdbb99ab49b76107e0527f1bbfe736b28dc8ede22ad6ba3ecec3607de18a29cee6828a7303d33ceb1e2ef0610800527f2e0a348344704012f149db2aed39ea37d1fe96d4d91f803026f17ed9a0449907610820527f273714e498d7ee7471cf8859c5db4113e86f6acee195b29fd0e5953728135962610840527f2997e7f0a5012a52da8388d912ce58fffbab8f6b5d56b6c289ab367fd72f242a610860527f129c840b8bc855a4b0be33af115a89f542e0765a6a4e72a08130adb64f69e330610880527f12f996932dedf138026039f055dbf0acbf0a31ecdb84b4bc9350322051262c4b6108a0527f2ef5a346fe2149bba2df7ba4cfd7f6de86d12ed01b8ea5bfd00830168e324c116108c0527f0b9251b2dc05b19b693442d039566599aed16a8e04b6f04291086dc2ceb36a0f6108e0527f1f9bc46c6ea1db9cfed2a6d17ad5f1c2636bfefeef07fb24cdc5bf7ef85ac149610900527f1e718fdf62e07bbdbc5d9bd10077c5a03d6cc12f34e3553a1c90d585ac0dc1ae610920527f0f01698dc2f64b2e27c46311e3d20ffcf3d49969e2c184b6e758bf843be0d0be610940527f0b121c577bb848e497dc2b542b5bfd0614e2d259e5b098898f56f9ea007aba6a610960527f06c9bca0a3f8a065174ac40e80a5bb5311c74c8af30f1b6fa4921b57d8c08e27610980527f19f26681b9614921bcfd483b106a55c8ef51325b8ad505c31f1bb2e1fe7fd8886109a05260006109c08190526109e08190527f260e01b251f6f1c7e7ff4e580791dee8ea51d87a358e038b4efe30fac09383c1610a00527f0118c4d5b837bcc2bc89b5b398b5974e9f5944073b32078b7e231fec938883b0610a20527f04fc6369f7110fe3d25156c1bb9a72859cf2a04641f99ba4ee413c80da6a5fe4610a40527f22febda3c0c0632a56475b4214e5615e11e6dd3f96e6cea2854a87d4dacc5e55610a60527f0b5d56b77fe704e8e92338c0082f37e091126414c830e4c6922d5ac802d842d4613400526103a05182811461088657604051637667dc9b60e01b8152600481018290526024810184905260440160405180910390fd5b7f30644e72e131a029b85045b68181585d97816a916871ca8d3c208c16d87cfd477f30644e72e131a029b85045b68181585d2833e84879b9709143e1f593f00000016024600435018281350661122052826020820135066112005282604082013506611260528260608201350661124052826080820135066112a0528260a082013506611280528260c0820135066112e0528260e0820135066112c05282610100820135066113205282610120820135066113005282610140820135066113605282610160820135066113405282610180820135066113a052826101a08201350661138052826101c0820135066113e052826101e0820135066113c05282610200820135066114205282610220820135066114005282610240820135066114605282610260820135066114405282610280820135066114a052826102a08201350661148052816102c08201350661160052816102e0820135066116205281610300820135066116405281610320820135066116605281610340820135066116805281610360820135066116a05281610380820135066116c052816103a0820135066116e052816103c08201350661170052816103e0820135066117205281610400820135066117405281610420820135066117605281610440820135066117805281610460820135066117a05281610480820135066117c052816104a0820135066117e052816104c08201350661180052816104e0820135066119605281610500820135066119805281610520820135066119a05281610540820135066119c052816105608201350661184052816105808201350661186052816105a08201350661188052816105c0820135066118a052816105e0820135066118c05281610600820135066118e05281610620820135066119005281610640820135066119205281610660820135066119405281610680820135066119e052816106a08201350661200052816106c08201350661202052816106e0820135066120405281610700820135066120605281610720820135066120805281610740820135066120a05281610760820135066120c05281610780820135066120e052816107a08201350661210052816107c08201350661212052826107e08201350661232052826108008201350661230052826108208201350661236052826108408201350661234052506109c05115610ce8576024803501806109e05160051b0190508035602082013560441b81019050604082013560881b81019050606082013560cc1b81019050608082013560a083013560441b8101905060c083013560881b8101905060e083013560cc1b8101905061010083013561012084013560441b8101905061014084013560881b8101905061016084013560cc1b810190506101808401356101a085013560441b810190506101c085013560881b810190506101e085013560cc1b810190508361350052826135205281613540528061356052868110878410168783108886101616610ce2576375d4fa5360e11b60005260046000fd5b50505050505b6103805160e01b6000526103a05160e01b60045260086000208061358052602480350160206103a05102808260206135800137600435602401915060c0826135a083013760e0016135802083810661266081905290925090508281800961268052828161268051096126a05250806000526112e0516020526112c051604052611320516060526113005160805260a0600020905081810661260052806000526001602053506021600090812082810661262052815261136051602052611340516040526113a0516060526113805160805260a09020818106612640819052828180096134205282816134205109613440528281613440510961346052806134805250806000526113e0516020526113c05160405261142051606052611400516080526114605160a0526114405160c0526114a05160e052611480516101005261012060002090508181066126c052806126e0525061260051612620516103c051600180856001602480350160206103a0510281018360058a0984600c8b0999505b81831015610ea857823585811085169450858a82089050858183018909975085818c01880996505084888209905084888b099950602083019250610e69565b50505080610ec15763374a972f60e01b60005260046000fd5b50508161300052806130205250505050508081600161260051086126205109806103805160015b81811015610efd578483840992508001610ee8565b5050613100528181800990508181820961312052506126c05161038051819060015b81811015610f34578483840992508001610f1f565b50508061304052826001840382089050613400518084036103e051858286088684840992508687848808820990508684840992508687848808820990508687888686098808820990506103c051925086828609915086600188038708878485099450876001890389898b888d8b8c0909090896506130205194508493508782860994508488878709955085898388099650868a61312051890997508760206000526020805260206040528b8b8a0960605260028c036080528b60a0526020600060c0600060055afa61101157633e2529ef60e21b60005260046000fd5b60005198508b818a0990508b8b8a0998508b828a0991508b613120518a0998508b838a0992508b858a0998508b848a0993508b8a8a0998508b888a0997508b868a0998508b613020518d8b8c090998508b896130005109613060528b888b09613080528b848709613780528b8388096130a0528b826131005109613140528b8188096130c052505050505050505050505061264051506126005161262051828361190051840982611620510101846118e051850983611600510101098384611940518509836116605101018561192051860984611640510101098485868385096116a051096134805109858661198051870985611620510101876119605188098661160051010109925085866119c051870985611660510101876119a0518809866116405101010991508586878885870961208051096134805109870382089050856126405161348051096134805285868788613060518a0361208051086130c0510961348051098208905085612640516134805109613480528586878860018a036116a051086130a05109613480510982086136005250505050508061264051613480510961348052806117205161266051098182836120205161178051096116405108820890508161266051820990508182836120005161176051096116205108820890508161266051820990508182836119e0516117005109611600510882089050816118405183846126605161186051098586612680516118805109876126a0516118a05109080808826120c0518485612660516120e051098687612680516121005109886126a051612120510908080883846001612600510861262051098461262051866118c051870908935084818687612600518609860808925084838509935084856001612600510885099350846130a05161264051099250848385089350846116c0518509935084838603850893508481868761260051612060510961168051080892505050826130c05161342051098381850383089150836120a05183099150838461314051830983089150508261348051848386038508096136205250508061344051613480510961348052806116e0516116005109816117005161162051098261172051611640510983611740516116605109847f183227397098d014dc2822db40c0ac2e9419f4243cdcb848a1f0fac9f80000008687600389036117a0510888611760518a6116205161160051090909098586878889858a08880886088408611780510894505050505081828384856116605161160051086119e051870308611760510884600286036117a05108096126405109828384858685612040510887600189036117a051080985086117a05109613480510961364052505080613420516134805109613480526002810360038203826116005184036116205108836116205185036116405108846116405186036116605108856116605187036119e05108866134805188898888088a8b8b8a088c8a8e038e8c8d09080909099350868788612640516134805109898a8988088b8c8c8a088d8a8f038f8c8d090809090985089350868788613420516134805109898a8987088b8c8c89088d898f038f8b8c090809090985089350868788613440516134805109898a8986088b8c8c88088d888f038f8a8b090809090985089350505050836117c051820961366052505061346051613480518392500961348052806116205182036119e051088161204051612040510982611640516116405109836116e05185612040516116405109098485868384088785870888030886878788098889611620516119e0510861200051080908925050508261348051848561176051870360010884090990508261202051611640510883611640518503856116e05161204051090884858287611620518903612000510809868685090893505050828361264051613480510984856117605187036001088509099150826117e0518484840809613680525050806116205161162051098161164051611640510982611620518460118408098360048309915083600982099050836003840992508381850385848788611620516116205108612000510809089150508283846120205161164051088561164051611640510809840384856120005187036116205108850908915082613480518209905082836126405161348051098309915082611760518209905082611760518309915082836117e0518585850809613680510861368052505080613460516134805109613480528081611620516119e05109826120005161160051090881612020518303838461164051611620510985611660516116005109080882600160441b82099050826120405184038208905082828208905082611740518209905082600160441b830991508283612000516119e05109830891508261172051848561166051611640510886038508098361176051858661204051612020510887038761166051880808099250836117005185858786860808096136c0525050612000518291506140009009816119e0518208905081614000820990508161164051820890508161400082099050816116205182089050816140008209905081611600518208905081611660518303820890508161174051820990508161400061202051098261200051820890508261400082099050826119e05182089050826140008209905082611660518208905082614000820990508261164051820890508261204051840382089050826117605182099050826117205184838508096136e0525050806126605161164051098161162051820890508161266051820990508161160051820890508161266051820990508161178051820890508082611660518403830891508161374052826116005184036119e05108836116605185036120405108848560018703840883098586848803600108830991508585876126405189858b61264051890908090861372052856126605161202051099450856120005186089450856126605186099450856119e0518608945085612660518609945085858703612040510894508561164051870361202051089150858687878903600108840987858903600108099150858487036116605108868760018903830882099050868760018903880887099550866126405184099250868284089250866126405184099250868684089250866126405184099250868184089250508161370052505083611620518503612000510892508361164051850385868488036001088609089250836117005161372051099150838461174051850983089150838461176051613740510983089150836116e0518309915083846117a051613700510983089150836136c05183089250836136e05184089250836118005184099250836134805184099250826136a05283613440516134805109613480525050508061378051826136a0518461368051866136605188613640518a61362051613600510808080808096137608190526126e0516137a08190526137c0919091526102e460043501610520816137e03750506105606137a020818106612700526000819052600160205381602160002006612720526002602053816021600020066127405260036020538160216000200661276052600460205381602160002006612780526005602053816021600020066127a0526006602053816021600020066127c0526007602053816021600020066127e0526008602053816021600020066128005260096020538160216000200661282052600a6020538160216000200661284052600b6020538160216000200661286052600c6020538160216000200661288052600d602053816021600020066128a052600e602053816021600020066128c052600f602053816021600020066128e05260106020538160216000200661290052601160205381602160002006612920526012602053816021600020066129405260136020538160216000200661296052601460205381602160002006612980526015602053816021600020066129a0526016602053816021600020066129c0526017602053816021600020066129e052601860205381602160002006612a0052601960205381602160002006612a2052601a60205381602160002006612a4052601b60205381602160002006612a6052601c60205381602160002006612a8052601d60205381602160002006612aa052601d6020535060216000908120828106612ac05281526123205160205261230051604052612360516060526123405160805260a08120829006612b00526113c0516113e0518482800985600387838609088683840914935050816131605280602061316001525050611400516114205184828309856003878386090886838409148416935050816000528060205250506130405160405260406131a06060600060075afa16604061316060808160065afa81169050611440516114605184828309856003878386090886838409148416935050816000528060205250508161304051613040510960405260406131a06060600060075afa16604061316060808160065afa81169050611480516114a05184828309856003878386090886838409148416935050816000528060205250508161304051836130405161304051090960405260406131a06060600060075afa16604061316060808160065afa81169050611200516112205184828309856003878386090886838409148416935050816000528060205250508161270051836001612b0051080960405260406131a06060600060075afa16604061316060808160065afa81169050611240516112605184828309856003878386090886838409148416935050816000528060205250508161272051836001612b0051080960405260406131a06060600060075afa16604061316060808160065afa81169050611280516112a05184828309856003878386090886838409148416935050816000528060205250508161274051836001612b0051080960405260406131a06060600060075afa16604061316060808160065afa811690506112c0516112e05184828309856003878386090886838409148416935050816000528060205250508161276051836001612b0051080960405260406131a06060600060075afa16604061316060808160065afa81169050611300516113205184828309856003878386090886838409148416935050816000528060205250508161278051836001612b0051080960405260406131a06060600060075afa16604061316060808160065afa8116905061134051611360518482830985600387838609088683840914841693505081600052806020525050816127a051836001612b0051080960405260406131a06060600060075afa16604061316060808160065afa81169050611380516113a0518482830985600387838609088683840914841693505081600052806020525050816127c051836001612b0051080960405260406131a06060600060075afa16604061316060808160065afa81169050610400516104205184828309856003878386090886838409148416935050816000528060205250506127e05160405260406131a06060600060075afa16604061316060808160065afa81169050610440516104605184828309856003878386090886838409148416935050816000528060205250506128005160405260406131a06060600060075afa16604061316060808160065afa81169050610480516104a05184828309856003878386090886838409148416935050816000528060205250506128205160405260406131a06060600060075afa16604061316060808160065afa811690506104c0516104e05184828309856003878386090886838409148416935050816000528060205250506128405160405260406131a06060600060075afa16604061316060808160065afa81169050610500516105205184828309856003878386090886838409148416935050816000528060205250506128605160405260406131a06060600060075afa16604061316060808160065afa81169050610540516105605184828309856003878386090886838409148416935050816000528060205250506128805160405260406131a06060600060075afa16604061316060808160065afa81169050610580516105a05184828309856003878386090886838409148416935050816000528060205250506128a05160405260406131a06060600060075afa16604061316060808160065afa811690506105c0516105e05184828309856003878386090886838409148416935050816000528060205250506128c05160405260406131a06060600060075afa16604061316060808160065afa81169050610600516106205184828309856003878386090886838409148416935050816000528060205250506128e05160405260406131a06060600060075afa16604061316060808160065afa81169050610640516106605184828309856003878386090886838409148416935050816000528060205250506129005160405260406131a06060600060075afa16604061316060808160065afa81169050610680516106a05184828309856003878386090886838409148416935050816000528060205250506129205160405260406131a06060600060075afa16604061316060808160065afa811690506106c0516106e05184828309856003878386090886838409148416935050816000528060205250506129405160405260406131a06060600060075afa16604061316060808160065afa81169050610700516107205184828309856003878386090886838409148416935050816000528060205250506129605160405260406131a06060600060075afa16604061316060808160065afa81169050610740516107605184828309856003878386090886838409148416935050816000528060205250506129805160405260406131a06060600060075afa16604061316060808160065afa81169050610780516107a0518482830985600387838609088683840914841693505081600052806020525050816129a051836001612b0051080960405260406131a06060600060075afa16604061316060808160065afa811690506107c0516107e0518482830985600387838609088683840914841693505081600052806020525050816129c051836001612b0051080960405260406131a06060600060075afa16604061316060808160065afa8116905061080051610820518482830985600387838609088683840914841693505081600052806020525050816129e051836001612b0051080960405260406131a06060600060075afa16604061316060808160065afa811690506108405161086051848283098560038783860908868384091484169350508160005280602052505081612a0051836001612b0051080960405260406131a06060600060075afa16604061316060808160065afa81169050610880516108a0518482830985600387838609088683840914841693505081600052806020525050612a205160405260406131a06060600060075afa16604061316060808160065afa811690506108c0516108e0518482830985600387838609088683840914841693505081600052806020525050612a405160405260406131a06060600060075afa16604061316060808160065afa8116905061090051610920518482830985600387838609088683840914841693505081600052806020525050612a605160405260406131a06060600060075afa16604061316060808160065afa8116905061094051610960518482830985600387838609088683840914841693505081600052806020525050612a805160405260406131a06060600060075afa16604061316060808160065afa81169050610980516109a0518482830985600387838609088683840914841693505081600052806020525050612aa05160405260406131a06060600060075afa16604061316060808160065afa8116905081826116005184612b00516119e051090861270051098283846116205186612b00516120005109086127205109820890508283846116405186612b00516120205109086127405109820890508283846116605186612b00516120405109086127605109820890508283846116805186612b00516120605109086127805109820890508283846116a05186612b00516120805109086127a05109820890508283846116c05186612b00516120a05109086127c051098208905082836116e0516127e051098208905082836117005161280051098208905082836117205161282051098208905082836117405161284051098208905082836117605161286051098208905082836117805161288051098208905082836117a0516128a051098208905082836117c0516128c051098208905082836117e0516128e051098208905082836118005161290051098208905082836119605161292051098208905082836119805161294051098208905082836119a05161296051098208905082836119c0516129805109820890508283846118405186612b00516120c05109086129a05109820890508283846118605186612b00516120e05109086129c05109820890508283846118805186612b00516121005109086129e05109820890508283846118a05186612b0051612120510908612a0051098208905082836118c051612a2051098208905082836118e051612a40510982089050828361190051612a60510982089050828361192051612a80510982089050828361194051612aa0510982089050826137605182089050600160005260026020528083036040525060406131a06060600060075afa16604061316060808160065afa16613360819052612b00516126c05161230051612320518682800987600389838609088883840914955050816000528060205250508060405260406131a06060600060075afa831692506040613160608061316060065afa8316925061234051612360518682830987600389838609088883840914861695505081600052806020525050836103c05185838509096040525060406131a06060600060075afa821691506040613220608061316060065afa8216915061230051600052612320516020526123405160405261236051606052806080526040806060604060075afa8216915060406131e06080600060065afa82169150613200518403613200526109c05115612b145761350051613520518582830986600388838609088783840914851694505081600052806020525050828182096040526040606080600060075afa8216915061354051613560518582830986600388838609088783840914851694505081600052806020525050604060006060600060075afa821691506132205160a0526132405160c05260406132206080606060065afa821691506131e0516040526132005160605260406131e06080600060065afa821691505b5080612b2b5763f755f36960e01b60005260046000fd5b806133805261322051600052613240516020527f198e9393920d483a7260bfb731fb5d25f1aa493335a9e71297e485b7aef312c26040527f1800deef121f1e76426a00665e5c4479674322d4f75edadd46debd5cd992f6ed6060527f090689d0585ff075ec9e99ad690c3395bc4b313370b38ef355acdadcd122975b6080527f12c85ea5db8c6deb4aab71808dcb408fe3d1e7690c43d37b4ce6cc0166fa7daa60a0526131e05160c0526132005160e052610a005161010052610a205161012052610a405161014052610a60516101605260206000610180600060085afa9050806133a0526000516133c05250505061336051613380516133c0516133a051161616612c42576301c47f3b60e21b60005260046000fd5b600160005260206000f35b60008060008060408587031215612c6357600080fd5b843567ffffffffffffffff80821115612c7b57600080fd5b818701915087601f830112612c8f57600080fd5b813581811115612c9e57600080fd5b886020828501011115612cb057600080fd5b602092830196509450908601359080821115612ccb57600080fd5b818701915087601f830112612cdf57600080fd5b813581811115612cee57600080fd5b8860208260051b8501011115612d0357600080fd5b9598949750506020019450505056fea2646970667358221220d58ffc1b2ffaddb278724a1bffabebf6baa8023d655bef6f84733f526b60e31b64736f6c63430008160033","linkReferences":{}},"methodIdentifiers":{"DEFAULT_ADMIN_ROLE()":"a217fddf","DOCTOR_ROLE()":"fec331f2","OWNER_ROLE()":"e58378bb","PHARMACY_ROLE()":"f0c58ea7","addDoctor(address)":"4780468f","addInventory(uint256,uint256)":"63c4e8de","addMedicine(string,string,uint256,uint256)":"2ba25bdc","addPharmacy(address)":"afd675f8","buyMedicine(bytes,bytes32[],string,uint256[])":"cef9ef29","getPrice(uint256[])":"f0e8fdce","getRoleAdmin(bytes32)":"248a9ca3","grantRole(bytes32,address)":"2f2ff15d","hasRole(bytes32,address)":"91d14854","medCount()":"ede06b97","medicines(uint256)":"c85e766d","renounceRole(bytes32,address)":"36568abe","revokeRole(bytes32,address)":"d547741f","supportsInterface(bytes4)":"01ffc9a7"},"id":5}